{
  "_format": "hh-sol-artifact-1",
  "contractName": "DappVotes",
  "sourceName": "contracts/DappVotes.sol",
  "abi": [
    {
      "anonymous": false,
      "inputs": [
        {
          "indexed": true,
          "internalType": "address",
          "name": "voter",
          "type": "address"
        },
        {
          "indexed": false,
          "internalType": "uint256",
          "name": "timestamp",
          "type": "uint256"
        }
      ],
      "name": "Voted",
      "type": "event"
    },
    {
      "inputs": [
        {
          "internalType": "uint256",
          "name": "id",
          "type": "uint256"
        },
        {
          "internalType": "string",
          "name": "name",
          "type": "string"
        },
        {
          "internalType": "string",
          "name": "image",
          "type": "string"
        }
      ],
      "name": "contest",
      "outputs": [],
      "stateMutability": "nonpayable",
      "type": "function"
    },
    {
      "inputs": [
        {
          "internalType": "string",
          "name": "image",
          "type": "string"
        },
        {
          "internalType": "string",
          "name": "title",
          "type": "string"
        },
        {
          "internalType": "string",
          "name": "description",
          "type": "string"
        },
        {
          "internalType": "uint256",
          "name": "startAt",
          "type": "uint256"
        },
        {
          "internalType": "uint256",
          "name": "endAt",
          "type": "uint256"
        }
      ],
      "name": "createPoll",
      "outputs": [],
      "stateMutability": "nonpayable",
      "type": "function"
    },
    {
      "inputs": [
        {
          "internalType": "uint256",
          "name": "id",
          "type": "uint256"
        }
      ],
      "name": "deletePoll",
      "outputs": [],
      "stateMutability": "nonpayable",
      "type": "function"
    },
    {
      "inputs": [
        {
          "internalType": "uint256",
          "name": "id",
          "type": "uint256"
        }
      ],
      "name": "getAllContestants",
      "outputs": [
        {
          "components": [
            {
              "internalType": "uint256",
              "name": "id",
              "type": "uint256"
            },
            {
              "internalType": "string",
              "name": "image",
              "type": "string"
            },
            {
              "internalType": "string",
              "name": "name",
              "type": "string"
            },
            {
              "internalType": "address",
              "name": "voter",
              "type": "address"
            },
            {
              "internalType": "uint256",
              "name": "votes",
              "type": "uint256"
            },
            {
              "internalType": "address[]",
              "name": "voters",
              "type": "address[]"
            }
          ],
          "internalType": "struct DappVotes.ContestantStruct[]",
          "name": "",
          "type": "tuple[]"
        }
      ],
      "stateMutability": "view",
      "type": "function"
    },
    {
      "inputs": [],
      "name": "getAllPolls",
      "outputs": [
        {
          "components": [
            {
              "internalType": "uint256",
              "name": "id",
              "type": "uint256"
            },
            {
              "internalType": "string",
              "name": "image",
              "type": "string"
            },
            {
              "internalType": "string",
              "name": "title",
              "type": "string"
            },
            {
              "internalType": "string",
              "name": "description",
              "type": "string"
            },
            {
              "internalType": "uint256",
              "name": "votes",
              "type": "uint256"
            },
            {
              "internalType": "uint256",
              "name": "contestants",
              "type": "uint256"
            },
            {
              "internalType": "bool",
              "name": "deleted",
              "type": "bool"
            },
            {
              "internalType": "address",
              "name": "director",
              "type": "address"
            },
            {
              "internalType": "uint256",
              "name": "startsAt",
              "type": "uint256"
            },
            {
              "internalType": "uint256",
              "name": "endAt",
              "type": "uint256"
            },
            {
              "internalType": "uint256",
              "name": "timestamp",
              "type": "uint256"
            },
            {
              "internalType": "address[]",
              "name": "voters",
              "type": "address[]"
            },
            {
              "internalType": "string[]",
              "name": "avatars",
              "type": "string[]"
            }
          ],
          "internalType": "struct DappVotes.PollStruct[]",
          "name": "",
          "type": "tuple[]"
        }
      ],
      "stateMutability": "view",
      "type": "function"
    },
    {
      "inputs": [
        {
          "internalType": "uint256",
          "name": "id",
          "type": "uint256"
        },
        {
          "internalType": "uint256",
          "name": "cid",
          "type": "uint256"
        }
      ],
      "name": "getContestant",
      "outputs": [
        {
          "components": [
            {
              "internalType": "uint256",
              "name": "id",
              "type": "uint256"
            },
            {
              "internalType": "string",
              "name": "image",
              "type": "string"
            },
            {
              "internalType": "string",
              "name": "name",
              "type": "string"
            },
            {
              "internalType": "address",
              "name": "voter",
              "type": "address"
            },
            {
              "internalType": "uint256",
              "name": "votes",
              "type": "uint256"
            },
            {
              "internalType": "address[]",
              "name": "voters",
              "type": "address[]"
            }
          ],
          "internalType": "struct DappVotes.ContestantStruct",
          "name": "",
          "type": "tuple"
        }
      ],
      "stateMutability": "view",
      "type": "function"
    },
    {
      "inputs": [
        {
          "internalType": "uint256",
          "name": "id",
          "type": "uint256"
        }
      ],
      "name": "getPoll",
      "outputs": [
        {
          "components": [
            {
              "internalType": "uint256",
              "name": "id",
              "type": "uint256"
            },
            {
              "internalType": "string",
              "name": "image",
              "type": "string"
            },
            {
              "internalType": "string",
              "name": "title",
              "type": "string"
            },
            {
              "internalType": "string",
              "name": "description",
              "type": "string"
            },
            {
              "internalType": "uint256",
              "name": "votes",
              "type": "uint256"
            },
            {
              "internalType": "uint256",
              "name": "contestants",
              "type": "uint256"
            },
            {
              "internalType": "bool",
              "name": "deleted",
              "type": "bool"
            },
            {
              "internalType": "address",
              "name": "director",
              "type": "address"
            },
            {
              "internalType": "uint256",
              "name": "startsAt",
              "type": "uint256"
            },
            {
              "internalType": "uint256",
              "name": "endAt",
              "type": "uint256"
            },
            {
              "internalType": "uint256",
              "name": "timestamp",
              "type": "uint256"
            },
            {
              "internalType": "address[]",
              "name": "voters",
              "type": "address[]"
            },
            {
              "internalType": "string[]",
              "name": "avatars",
              "type": "string[]"
            }
          ],
          "internalType": "struct DappVotes.PollStruct",
          "name": "",
          "type": "tuple"
        }
      ],
      "stateMutability": "view",
      "type": "function"
    },
    {
      "inputs": [
        {
          "internalType": "uint256",
          "name": "id",
          "type": "uint256"
        },
        {
          "internalType": "string",
          "name": "image",
          "type": "string"
        },
        {
          "internalType": "string",
          "name": "title",
          "type": "string"
        },
        {
          "internalType": "string",
          "name": "description",
          "type": "string"
        },
        {
          "internalType": "uint256",
          "name": "startAt",
          "type": "uint256"
        },
        {
          "internalType": "uint256",
          "name": "endAt",
          "type": "uint256"
        }
      ],
      "name": "updatePoll",
      "outputs": [],
      "stateMutability": "nonpayable",
      "type": "function"
    },
    {
      "inputs": [
        {
          "internalType": "uint256",
          "name": "id",
          "type": "uint256"
        },
        {
          "internalType": "uint256",
          "name": "cid",
          "type": "uint256"
        }
      ],
      "name": "vote",
      "outputs": [],
      "stateMutability": "nonpayable",
      "type": "function"
    }
  ],
  "bytecode": "0x608060405234801561001057600080fd5b5061249a806100206000396000f3fe608060405234801561001057600080fd5b50600436106100935760003560e01c806366dd51dc1161006657806366dd51dc146100fe578063a035b48514610111578063b384abef14610131578063d343641114610144578063f0d0bc451461016457600080fd5b8063029433f0146100985780631a8cbcaa146100ad5780631f35b51d146100d657806332b633fa146100e9575b600080fd5b6100ab6100a6366004611d52565b610177565b005b6100c06100bb366004611df6565b610443565b6040516100cd9190611fea565b60405180910390f35b6100ab6100e4366004611df6565b6107f3565b6100f1610910565b6040516100cd9190612004565b6100ab61010c366004612066565b610d90565b61012461011f366004611df6565b61103c565b6040516100cd919061214a565b6100ab61013f36600461219f565b611340565b61015761015236600461219f565b61160e565b6040516100cd91906121c1565b6100ab6101723660046121d4565b611808565b60008681526002602052604090205460ff166101ae5760405162461bcd60e51b81526004016101a59061226e565b60405180910390fd5b60008681526003602052604090206006015461010090046001600160a01b031633146102125760405162461bcd60e51b8152602060048201526013602482015272556e617574686f72697a656420656e7469747960681b60448201526064016101a5565b600084511161025b5760405162461bcd60e51b81526020600482015260156024820152745469746c652063616e6e6f7420626520656d70747960581b60448201526064016101a5565b60008351116102ac5760405162461bcd60e51b815260206004820152601b60248201527f4465736372697074696f6e2063616e6e6f7420626520656d707479000000000060448201526064016101a5565b60008551116102f95760405162461bcd60e51b8152602060048201526019602482015278496d6167652055524c2063616e6e6f7420626520656d70747960381b60448201526064016101a5565b60008681526003602052604090206006015460ff16156103525760405162461bcd60e51b8152602060048201526014602482015273141bdb1b08185b1c9958591e4819195b195d195960621b60448201526064016101a5565b6000868152600360205260409020600401546001116103ac5760405162461bcd60e51b8152602060048201526016602482015275506f6c6c2068617320766f74656420616c726561647960501b60448201526064016101a5565b8181116103cb5760405162461bcd60e51b81526004016101a590612296565b60008681526003602052604090206002016103e68582612367565b506000868152600360208190526040909120016104038482612367565b50600086815260036020526040902060010161041f8682612367565b50600095865260036020526040909520600781019190915560080193909355505050565b61044b611ad7565b60008281526002602052604090205460ff166104795760405162461bcd60e51b81526004016101a59061226e565b60036000838152602001908152602001600020604051806101a0016040529081600082015481526020016001820180546104b2906122de565b80601f01602080910402602001604051908101604052809291908181526020018280546104de906122de565b801561052b5780601f106105005761010080835404028352916020019161052b565b820191906000526020600020905b81548152906001019060200180831161050e57829003601f168201915b50505050508152602001600282018054610544906122de565b80601f0160208091040260200160405190810160405280929190818152602001828054610570906122de565b80156105bd5780601f10610592576101008083540402835291602001916105bd565b820191906000526020600020905b8154815290600101906020018083116105a057829003601f168201915b505050505081526020016003820180546105d6906122de565b80601f0160208091040260200160405190810160405280929190818152602001828054610602906122de565b801561064f5780601f106106245761010080835404028352916020019161064f565b820191906000526020600020905b81548152906001019060200180831161063257829003601f168201915b505050918352505060048201546020808301919091526005830154604080840191909152600684015460ff8116151560608501526001600160a01b0361010091829004166080850152600785015460a0850152600885015460c0850152600985015460e0850152600a850180548351818602810186019094528084529190940193919283018282801561070b57602002820191906000526020600020905b81546001600160a01b031681526001909101906020018083116106ed575b50505050508152602001600b8201805480602002602001604051908101604052809291908181526020016000905b828210156107e5578382906000526020600020018054610758906122de565b80601f0160208091040260200160405190810160405280929190818152602001828054610784906122de565b80156107d15780601f106107a6576101008083540402835291602001916107d1565b820191906000526020600020905b8154815290600101906020018083116107b457829003601f168201915b505050505081526020019060010190610739565b505050915250909392505050565b60008181526002602052604090205460ff166108215760405162461bcd60e51b81526004016101a59061226e565b60008181526003602052604090206006015461010090046001600160a01b031633146108855760405162461bcd60e51b8152602060048201526013602482015272556e617574686f72697a656420656e7469747960681b60448201526064016101a5565b6000818152600360205260409020600401546001116108f25760405162461bcd60e51b815260206004820152602360248201527f506f6c6c2063616e6e6f742062652064656c6574656420616674657220766f74604482015262696e6760e81b60648201526084016101a5565b6000908152600360205260409020600601805460ff19166001179055565b6060600060015b60005481116109595760008181526003602052604090206006015460ff16610947578161094381612427565b9250505b8061095181612427565b915050610917565b5060008167ffffffffffffffff81111561097557610975611caf565b6040519080825280602002602001820160405280156109ae57816020015b61099b611ad7565b8152602001906001900390816109935790505b509050600060015b6000548111610d875760008181526003602052604090206006015460ff16610d755760036000828152602001908152602001600020604051806101a001604052908160008201548152602001600182018054610a11906122de565b80601f0160208091040260200160405190810160405280929190818152602001828054610a3d906122de565b8015610a8a5780601f10610a5f57610100808354040283529160200191610a8a565b820191906000526020600020905b815481529060010190602001808311610a6d57829003601f168201915b50505050508152602001600282018054610aa3906122de565b80601f0160208091040260200160405190810160405280929190818152602001828054610acf906122de565b8015610b1c5780601f10610af157610100808354040283529160200191610b1c565b820191906000526020600020905b815481529060010190602001808311610aff57829003601f168201915b50505050508152602001600382018054610b35906122de565b80601f0160208091040260200160405190810160405280929190818152602001828054610b61906122de565b8015610bae5780601f10610b8357610100808354040283529160200191610bae565b820191906000526020600020905b815481529060010190602001808311610b9157829003601f168201915b505050918352505060048201546020808301919091526005830154604080840191909152600684015460ff8116151560608501526001600160a01b0361010091829004166080850152600785015460a0850152600885015460c0850152600985015460e0850152600a8501805483518186028101860190945280845291909401939192830182828015610c6a57602002820191906000526020600020905b81546001600160a01b03168152600190910190602001808311610c4c575b50505050508152602001600b8201805480602002602001604051908101604052809291908181526020016000905b82821015610d44578382906000526020600020018054610cb7906122de565b80601f0160208091040260200160405190810160405280929190818152602001828054610ce3906122de565b8015610d305780601f10610d0557610100808354040283529160200191610d30565b820191906000526020600020905b815481529060010190602001808311610d1357829003601f168201915b505050505081526020019060010190610c98565b50505091525084905083610d5781612427565b945081518110610d6957610d6961244e565b60200260200101819052505b80610d7f81612427565b9150506109b6565b50909392505050565b60008381526002602052604090205460ff16610dbe5760405162461bcd60e51b81526004016101a59061226e565b6000825111610e065760405162461bcd60e51b81526020600482015260146024820152736e616d652063616e6e6f7420626520656d70747960601b60448201526064016101a5565b6000815111610e4f5760405162461bcd60e51b8152602060048201526015602482015274696d6167652063616e6e6f7420626520656d70747960581b60448201526064016101a5565b600083815260036020526040902060040154600111610ea95760405162461bcd60e51b8152602060048201526016602482015275506f6c6c2068617320766f74657320616c726561647960501b60448201526064016101a5565b600083815260056020908152604080832033845290915290205460ff1615610f075760405162461bcd60e51b8152602060048201526011602482015270105b1c9958591e4818dbdb9d195cdd1959607a1b60448201526064016101a5565b610f15600180546001019055565b610f1d611b4a565b6040818101849052602080830184815233606085015260018054855260008881526006845284812086518252909352929091208351815590518392820190610f659082612367565b5060408201516002820190610f7a9082612367565b5060608201516003820180546001600160a01b0319166001600160a01b039092169190911790556080820151600482015560a08201518051610fc6916005840191602090910190611b89565b50505060008481526005602090815260408083203384528252808320805460ff1916600190811790915587845260038352908320600b018054918201815583529120016110138382612367565b50600084815260036020526040812060050180549161103183612427565b919050555050505050565b6060600060015b600154811161108b57600084815260066020908152604080832084845290915290205415611079578161107581612427565b9250505b8061108381612427565b915050611043565b5060008167ffffffffffffffff8111156110a7576110a7611caf565b6040519080825280602002602001820160405280156110e057816020015b6110cd611b4a565b8152602001906001900390816110c55790505b509050600060015b600154811161133657600086815260066020908152604080832084845290915290205415611324576000868152600660209081526040808320848452825291829020825160c0810190935280548352600181018054919284019161114b906122de565b80601f0160208091040260200160405190810160405280929190818152602001828054611177906122de565b80156111c45780601f10611199576101008083540402835291602001916111c4565b820191906000526020600020905b8154815290600101906020018083116111a757829003601f168201915b505050505081526020016002820180546111dd906122de565b80601f0160208091040260200160405190810160405280929190818152602001828054611209906122de565b80156112565780601f1061122b57610100808354040283529160200191611256565b820191906000526020600020905b81548152906001019060200180831161123957829003601f168201915b505050505081526020016003820160009054906101000a90046001600160a01b03166001600160a01b03166001600160a01b0316815260200160048201548152602001600582018054806020026020016040519081016040528092919081815260200182805480156112f157602002820191906000526020600020905b81546001600160a01b031681526001909101906020018083116112d3575b50505050508152505083838061130690612427565b9450815181106113185761131861244e565b60200260200101819052505b8061132e81612427565b9150506110e8565b5090949350505050565b60008281526002602052604090205460ff1661136e5760405162461bcd60e51b81526004016101a59061226e565b600082815260046020908152604080832033845290915290205460ff16156113c85760405162461bcd60e51b815260206004820152600d60248201526c105b1c9958591e481d9bdd1959609a1b60448201526064016101a5565b60008281526003602052604090206006015460ff16156114225760405162461bcd60e51b8152602060048201526015602482015274506f6c6c696e67206e6f7420617661696c61626c6560581b60448201526064016101a5565b60008281526003602052604090206005015460011061147c5760405162461bcd60e51b81526020600482015260166024820152754e6f7420656e6f75676820636f6e74657374616e747360501b60448201526064016101a5565b60008281526003602052604090206007015442101580156114ad575060008281526003602052604090206008015442105b6114f95760405162461bcd60e51b815260206004820152601960248201527f566f74696e67206d75737420626520696e2073657373696f6e0000000000000060448201526064016101a5565b600082815260036020526040812060040180549161151683612427565b90915550506000828152600360209081526040808320600a0180546001810182559084528284200180546001600160a01b0319163317905584835260068252808320848452909152812060040180549161156f83612427565b9091555050600082815260066020908152604080832084845282528083206005018054600181810183559185528385200180546001600160a01b03191633908117909155868552600484528285208186529093529220805460ff19169092179091557f4d99b957a2bc29a30ebd96a7be8e68fe50a3c701db28a91436490b7d53870ca46115f94290565b60405190815260200160405180910390a25050565b611616611b4a565b6000838152600660209081526040808320858452825291829020825160c08101909352805483526001810180549192840191611651906122de565b80601f016020809104026020016040519081016040528092919081815260200182805461167d906122de565b80156116ca5780601f1061169f576101008083540402835291602001916116ca565b820191906000526020600020905b8154815290600101906020018083116116ad57829003601f168201915b505050505081526020016002820180546116e3906122de565b80601f016020809104026020016040519081016040528092919081815260200182805461170f906122de565b801561175c5780601f106117315761010080835404028352916020019161175c565b820191906000526020600020905b81548152906001019060200180831161173f57829003601f168201915b505050505081526020016003820160009054906101000a90046001600160a01b03166001600160a01b03166001600160a01b0316815260200160048201548152602001600582018054806020026020016040519081016040528092919081815260200182805480156117f757602002820191906000526020600020905b81546001600160a01b031681526001909101906020018083116117d9575b505050505081525050905092915050565b60008451116118515760405162461bcd60e51b81526020600482015260156024820152745469746c652063616e6e6f7420626520656d70747960581b60448201526064016101a5565b60008351116118a25760405162461bcd60e51b815260206004820152601b60248201527f6465736372697074696f6e2063616e6e6f7420626520656d707479000000000060448201526064016101a5565b60008551116118ef5760405162461bcd60e51b8152602060048201526019602482015278496d6167652055524c2063616e6e6f7420626520656d70747960381b60448201526064016101a5565b600082116119495760405162461bcd60e51b815260206004820152602160248201527f53746172742064617465206d7573742062652067726561746572207468616e206044820152600360fc1b60648201526084016101a5565b8181116119685760405162461bcd60e51b81526004016101a590612296565b611976600080546001019055565b61197e611ad7565b6000805480835260408084018890526060840187905260208085018a8152610100860188905261012086018790523360e0870152426101408701529284526003905290912082518155905182919060018201906119db9082612367565b50604082015160028201906119f09082612367565b5060608201516003820190611a059082612367565b506080820151600482015560a0820151600582015560c082015160068201805460e08501516001600160a81b0319909116921515610100600160a81b031916929092176101006001600160a01b0390931683021790558201516007820155610120820151600882015561014082015160098201556101608201518051611a9591600a840191602090910190611b89565b506101808201518051611ab291600b840191602090910190611bee565b505090516000908152600260205260409020805460ff19166001179055505050505050565b604051806101a0016040528060008152602001606081526020016060815260200160608152602001600081526020016000815260200160001515815260200160006001600160a01b0316815260200160008152602001600081526020016000815260200160608152602001606081525090565b6040518060c0016040528060008152602001606081526020016060815260200160006001600160a01b0316815260200160008152602001606081525090565b828054828255906000526020600020908101928215611bde579160200282015b82811115611bde57825182546001600160a01b0319166001600160a01b03909116178255602090920191600190910190611ba9565b50611bea929150611c40565b5090565b828054828255906000526020600020908101928215611c34579160200282015b82811115611c345782518290611c249082612367565b5091602001919060010190611c0e565b50611bea929150611c55565b5b80821115611bea5760008155600101611c41565b80821115611bea576000611c698282611c72565b50600101611c55565b508054611c7e906122de565b6000825580601f10611c8e575050565b601f016020900490600052602060002090810190611cac9190611c40565b50565b634e487b7160e01b600052604160045260246000fd5b600082601f830112611cd657600080fd5b813567ffffffffffffffff80821115611cf157611cf1611caf565b604051601f8301601f19908116603f01168101908282118183101715611d1957611d19611caf565b81604052838152866020858801011115611d3257600080fd5b836020870160208301376000602085830101528094505050505092915050565b60008060008060008060c08789031215611d6b57600080fd5b86359550602087013567ffffffffffffffff80821115611d8a57600080fd5b611d968a838b01611cc5565b96506040890135915080821115611dac57600080fd5b611db88a838b01611cc5565b95506060890135915080821115611dce57600080fd5b50611ddb89828a01611cc5565b9350506080870135915060a087013590509295509295509295565b600060208284031215611e0857600080fd5b5035919050565b6000815180845260005b81811015611e3557602081850181015186830182015201611e19565b506000602082860101526020601f19601f83011685010191505092915050565b600081518084526020808501945080840160005b83811015611e8e5781516001600160a01b031687529582019590820190600101611e69565b509495945050505050565b600082825180855260208086019550808260051b84010181860160005b84811015611ee457601f19868403018952611ed2838351611e0f565b98840198925090830190600101611eb6565b5090979650505050505050565b60006101a0825184526020830151816020860152611f1182860182611e0f565b91505060408301518482036040860152611f2b8282611e0f565b91505060608301518482036060860152611f458282611e0f565b9150506080830151608085015260a083015160a085015260c0830151611f6f60c086018215159052565b5060e0830151611f8a60e08601826001600160a01b03169052565b506101008381015190850152610120808401519085015261014080840151908501526101608084015185830382870152611fc48382611e55565b925050506101808084015185830382870152611fe08382611e99565b9695505050505050565b602081526000611ffd6020830184611ef1565b9392505050565b6000602080830181845280855180835260408601915060408160051b870101925083870160005b8281101561205957603f19888603018452612047858351611ef1565b9450928501929085019060010161202b565b5092979650505050505050565b60008060006060848603121561207b57600080fd5b83359250602084013567ffffffffffffffff8082111561209a57600080fd5b6120a687838801611cc5565b935060408601359150808211156120bc57600080fd5b506120c986828701611cc5565b9150509250925092565b805182526000602082015160c060208501526120f260c0850182611e0f565b90506040830151848203604086015261210b8282611e0f565b91505060018060a01b0360608401511660608501526080830151608085015260a083015184820360a08601526121418282611e55565b95945050505050565b6000602080830181845280855180835260408601915060408160051b870101925083870160005b8281101561205957603f1988860301845261218d8583516120d3565b94509285019290850190600101612171565b600080604083850312156121b257600080fd5b50508035926020909101359150565b602081526000611ffd60208301846120d3565b600080600080600060a086880312156121ec57600080fd5b853567ffffffffffffffff8082111561220457600080fd5b61221089838a01611cc5565b9650602088013591508082111561222657600080fd5b61223289838a01611cc5565b9550604088013591508082111561224857600080fd5b5061225588828901611cc5565b9598949750949560608101359550608001359392505050565b6020808252600e908201526d141bdb1b081b9bdd08199bdd5b9960921b604082015260600190565b60208082526028908201527f456e642064617465206d7573742062652067726561746572207468616e207374604082015267617274206461746560c01b606082015260800190565b600181811c908216806122f257607f821691505b60208210810361231257634e487b7160e01b600052602260045260246000fd5b50919050565b601f82111561236257600081815260208120601f850160051c8101602086101561233f5750805b601f850160051c820191505b8181101561235e5782815560010161234b565b5050505b505050565b815167ffffffffffffffff81111561238157612381611caf565b6123958161238f84546122de565b84612318565b602080601f8311600181146123ca57600084156123b25750858301515b600019600386901b1c1916600185901b17855561235e565b600085815260208120601f198616915b828110156123f9578886015182559484019460019091019084016123da565b50858210156124175787850151600019600388901b60f8161c191681555b5050505050600190811b01905550565b60006001820161244757634e487b7160e01b600052601160045260246000fd5b5060010190565b634e487b7160e01b600052603260045260246000fdfea26469706673582212206d87d2cfddef1d2ab042487911ead7ef603c31b268c7985a92532a291eac2c4364736f6c63430008110033",
  "linkReferences": {},
  "deployedLinkReferences": {}
}